:020000020000FC
:100000000E94540040E051E060E071E080E090E048
:100010000E941800641758F00E941F003DE00E94E3
:1000200061003AE00E9461000E944C00F1CFFFCFD6
:10003000862F972F750F641F482F592F0895362F3D
:10004000307F36953695369536950E943800362F96
:100050003F700E943800372F307F369536953695A1
:1000600036950E943800372F3F700E94380008955F
:1000700020E33A3010F021E43A50320F0E94610040
:10008000089521E031E02395222329F000003395E3
:100090003323C1F3FBCF089512E30E9441001A9568
:1000A000112309F0FACF089507E611271093C50030
:1000B0000093C40008E10093C1000EE00093C20069
:1000C00008950091C00005FFFCCF3093C60008954D
:00000001FF
