:020000020000FC
:100000000E944E0040E051E060E071E080E090E04E
:100010000E941800641758F00E941F003DE00E94E3
:100020005B003AE00E945B000E944600F1CFFFCFE8
:10003000862F972F750F641F482F592F0895362F3D
:10004000307F32950E943200362F3F700E9432007E
:10005000372F307F32950E943200372F3F700E9439
:100060003200089520E33A3010F021E43A50320F84
:100070000E945B00089521E031E02395222329F0BE
:10008000000033953323C1F3FBCF089512E30E94A0
:100090003B001A95112309F0FACF089507E61127BE
:1000A0001093C5000093C40008E10093C1000EE066
:1000B0000093C20008950091C00005FFFCCF30936B
:0400C000C6000895D9
:00000001FF
