:020000020000FC
:100000000E9443000AE4202E08E3302E07E2402E2F
:1000100000E1502E0E947600372D0E945000382DAE
:100020000E9450000AEE202E00E6302E02E0402E04
:1000300006E2502E0E947600362D0E945000382D88
:100040000E94500030E03F930E9457003A3221F066
:100050003032D1F33F93F8CF0E9462000E945000EB
:10006000432F0E9457003A3021F03032D1F33F93B2
:10007000F8CF0E9462000E945000349F0E949100BD
:100080000E945E00DFCF07E611271093C5000093A2
:10009000C40008E10093C1000EE00093C20008957F
:1000A0000091C00005FFFCCF3093C6000895009179
:1000B000C00007FFFCCF3091C60008953AE00E94CF
:1000C000500008959F90AF9000E311E02AE030E0E7
:1000D000FF90FF2031F0F01AF19E300D129F102D8D
:1000E000F7CF00E00F93AF929F92089500E010E0E9
:1000F00003950E9488003B142A041905C8F70A9545
:100100000E948800722C832C8B187A08602E089528
:10011000059DB02CA12C049DA00C10E0912E911CEB
:100120000895212C302CF1E0E6E4459055900E9492
:100130007600272C382C30E3360D0E945000052D18
:10014000013099F70895271003E80064000A0001C0
:00000001FF
