:020000020000FC
:100000000E94300002EF402E01EC502E04E20E94CC
:100010006400362D0E943D00372D0E943D00382D92
:100020000E943D0030E03F930E9444003A3221F0AC
:100030003032D1F33F93F8CF0E944F00432F0E94FC
:1000400044003A3021F03032D1F33F93F8CF0E9490
:100050004F00349F302D0E943D000E944B00E2CFA4
:1000600007E611271093C5000093C40008E1009330
:10007000C1000EE00093C20008950091C00005FF8A
:10008000FCCF3093C60008950091C00007FFFCCF5D
:100090003091C60008953AE00E943D0008959F9077
:1000A000AF9000E311E02AE030E0FF90FF2031F054
:1000B000F01AF19E300D129F102DF7CF00E00F9334
:1000C000AF929F92089500E0059D802C712C049DB5
:0A00D000700C10E0612E611C089511
:00000001FF
