:020000020000FC
:100000000E9440000AE4202E08E3302E07E2402E32
:1000100000E1502E0E947300372D0E944D00382DB4
:100020000E944D000AEE202E00E6302E02E0402E07
:1000300006E2502E0E947300362D0E944D00382D8E
:100040000E944D0030E03F930E9454003A3221F06C
:100050003032D1F33F93F8CF0E945F00432F0E94CC
:1000600054003A3021F03032D1F33F93F8CF0E9460
:100070005F00349F302D0E944D000E945B00E2CF54
:1000800007E611271093C5000093C40008E1009310
:10009000C1000EE00093C20008950091C00005FF6A
:1000A000FCCF3093C60008950091C00007FFFCCF3D
:1000B0003091C60008953AE00E944D0008959F9047
:1000C000AF9000E311E02AE030E0FF90FF2031F034
:1000D000F01AF19E300D129F102DF7CF00E00F9314
:1000E000AF929F92089500E010E003950E94840073
:1000F0003B142A041905C8F70A950E948400722C43
:10010000832C8B187A08602E059DB02CA12C049DA1
:0A011000A00C10E0912E911C089540
:00000001FF
