:020000020000FC
:100000000E940F0030E03F930E9423003A3011F02D
:100010003F93FACF0E942E000E941C00F3CF07E608
:1000200011271093C5000093C40008E10093C1009C
:100030000EE00093C20008950091C00005FFFCCFC0
:100040003093C60008950091C00007FFFCCF3091A7
:10005000C60008953AE00E941C0008959F90AF905A
:1000600000E311E02AE030E0FF90FF2031F0F01AC9
:10007000F19E300D129F102DF7CFAF929F920895F1
:00000001FF
