:020000020000FC
:100000000E94200030E03F930E9434003A3221F0F9
:100010003032D1F33F93F8CF0E943F00432F0E942C
:1000200034003A3021F03032D1F33F93F8CF0E94C0
:100030003F00349F302D0E942D000E943B00E2CFF4
:1000400007E611271093C5000093C40008E1009350
:10005000C1000EE00093C20008950091C00005FFAA
:10006000FCCF3093C60008950091C00007FFFCCF7D
:100070003091C60008953AE00E942D0008959F90A7
:10008000AF9000E311E02AE030E0FF90FF2031F074
:10009000F01AF19E300D129F102DF7CF00E00F9354
:0600A000AF929F9208954B
:00000001FF
