:020000020000FC
:100000000E94260030E03F933EE30E9433000E94AE
:100010003A000E9433003A3221F03032C1F33F936C
:10002000F6CF0E944500432F0E943A000E94330001
:100030003A3021F03032C1F33F93F6CF0E944500B1
:10004000349F0E9474000E944100DCCF07E6112714
:100050001093C5000093C40008E10093C1000EE0B6
:100060000093C20008950091C00005FFFCCF3093BB
:10007000C60008950091C00007FFFCCF3091C60074
:1000800008953AE00E94330008959F90AF9000E3F6
:1000900011E02AE030E0FF90FF2031F0F01AF19EED
:1000A000300D129F102DF7CF00E00F93AF929F926B
:1000B000089500E010E003950E946B003B142A04B1
:1000C0001905C8F70A950E946B00722C832C8B18B7
:1000D0007A08602E0895059DB02CA12C049DA00CDB
:1000E00010E0912E911C0895212C302CF1E0E6E2D5
:1000F00010E0459055901F930E9459001F91272CA6
:10010000382C161549F01FEF30E3360D0E943300EE
:10011000052D013071F706C0052D013051F730E390
:100120000E9433000895271003E80064000A0001CC
:00000001FF
